:100F5C000A128A11B12F0313831606148614061570
:100F6C0008108810081188110812881208138312AF
:100F7C000618CC2F861CCC2F0619CC2F081408155C
:100F8C0088108811081288120813BE2F061CDA2F3D
:100F9C00861CDA2F061DDA2F08100811881088110C
:100FAC00081688120813BE2F061CE62F0619E62F0A
:100FBC000810081588108811081288160813BE2FFF
:100FCC000618F22F061DF22F08140811881088112C
:100FDC00081288120817BE2F0618BE2F8618BE2FAF
:100FEC000619BE2F081008118814881508168812C7
:040FFC000813BE2FE9
:02400E00B13FC0
:00000001FF
